{
  "_format": "hh-sol-artifact-1",
  "contractName": "UniversityDegreeV2",
  "sourceName": "contracts/UniversityDegreeV2.sol",
  "abi": [
    {
      "inputs": [
        {
          "internalType": "string",
          "name": "name",
          "type": "string"
        },
        {
          "internalType": "string",
          "name": "symbol",
          "type": "string"
        }
      ],
      "stateMutability": "nonpayable",
      "type": "constructor"
    },
    {
      "anonymous": false,
      "inputs": [
        {
          "indexed": true,
          "internalType": "address",
          "name": "owner",
          "type": "address"
        },
        {
          "indexed": true,
          "internalType": "address",
          "name": "approved",
          "type": "address"
        },
        {
          "indexed": true,
          "internalType": "uint256",
          "name": "tokenId",
          "type": "uint256"
        }
      ],
      "name": "Approval",
      "type": "event"
    },
    {
      "anonymous": false,
      "inputs": [
        {
          "indexed": true,
          "internalType": "address",
          "name": "owner",
          "type": "address"
        },
        {
          "indexed": true,
          "internalType": "address",
          "name": "operator",
          "type": "address"
        },
        {
          "indexed": false,
          "internalType": "bool",
          "name": "approved",
          "type": "bool"
        }
      ],
      "name": "ApprovalForAll",
      "type": "event"
    },
    {
      "anonymous": false,
      "inputs": [
        {
          "indexed": true,
          "internalType": "address",
          "name": "previousOwner",
          "type": "address"
        },
        {
          "indexed": true,
          "internalType": "address",
          "name": "newOwner",
          "type": "address"
        }
      ],
      "name": "OwnershipTransferred",
      "type": "event"
    },
    {
      "anonymous": false,
      "inputs": [
        {
          "indexed": true,
          "internalType": "address",
          "name": "from",
          "type": "address"
        },
        {
          "indexed": true,
          "internalType": "address",
          "name": "to",
          "type": "address"
        },
        {
          "indexed": true,
          "internalType": "uint256",
          "name": "tokenId",
          "type": "uint256"
        }
      ],
      "name": "Transfer",
      "type": "event"
    },
    {
      "inputs": [
        {
          "internalType": "address",
          "name": "to",
          "type": "address"
        },
        {
          "internalType": "uint256",
          "name": "tokenId",
          "type": "uint256"
        }
      ],
      "name": "approve",
      "outputs": [],
      "stateMutability": "nonpayable",
      "type": "function"
    },
    {
      "inputs": [
        {
          "internalType": "address",
          "name": "owner",
          "type": "address"
        }
      ],
      "name": "balanceOf",
      "outputs": [
        {
          "internalType": "uint256",
          "name": "",
          "type": "uint256"
        }
      ],
      "stateMutability": "view",
      "type": "function"
    },
    {
      "inputs": [
        {
          "internalType": "uint256",
          "name": "tokenId",
          "type": "uint256"
        }
      ],
      "name": "getApproved",
      "outputs": [
        {
          "internalType": "address",
          "name": "",
          "type": "address"
        }
      ],
      "stateMutability": "view",
      "type": "function"
    },
    {
      "inputs": [
        {
          "internalType": "uint256",
          "name": "tokenId",
          "type": "uint256"
        }
      ],
      "name": "getDegree",
      "outputs": [
        {
          "internalType": "string",
          "name": "courseName",
          "type": "string"
        },
        {
          "internalType": "string",
          "name": "universityName",
          "type": "string"
        },
        {
          "internalType": "address",
          "name": "owner",
          "type": "address"
        },
        {
          "internalType": "address",
          "name": "to",
          "type": "address"
        }
      ],
      "stateMutability": "view",
      "type": "function"
    },
    {
      "inputs": [],
      "name": "getIssuedDegrees",
      "outputs": [
        {
          "internalType": "uint256[]",
          "name": "",
          "type": "uint256[]"
        },
        {
          "components": [
            {
              "internalType": "string",
              "name": "courseName",
              "type": "string"
            },
            {
              "internalType": "string",
              "name": "universityName",
              "type": "string"
            },
            {
              "internalType": "address",
              "name": "deployedFrom",
              "type": "address"
            },
            {
              "internalType": "address",
              "name": "deployedTo",
              "type": "address"
            }
          ],
          "internalType": "struct UniversityDegreeV2.Degree[]",
          "name": "",
          "type": "tuple[]"
        }
      ],
      "stateMutability": "view",
      "type": "function"
    },
    {
      "inputs": [],
      "name": "getIssuedDegreesCount",
      "outputs": [
        {
          "internalType": "uint256",
          "name": "",
          "type": "uint256"
        }
      ],
      "stateMutability": "view",
      "type": "function"
    },
    {
      "inputs": [
        {
          "internalType": "address",
          "name": "owner",
          "type": "address"
        },
        {
          "internalType": "address",
          "name": "operator",
          "type": "address"
        }
      ],
      "name": "isApprovedForAll",
      "outputs": [
        {
          "internalType": "bool",
          "name": "",
          "type": "bool"
        }
      ],
      "stateMutability": "view",
      "type": "function"
    },
    {
      "inputs": [
        {
          "internalType": "uint256",
          "name": "tokenId",
          "type": "uint256"
        }
      ],
      "name": "isTokenLocked",
      "outputs": [
        {
          "internalType": "bool",
          "name": "",
          "type": "bool"
        }
      ],
      "stateMutability": "view",
      "type": "function"
    },
    {
      "inputs": [
        {
          "internalType": "uint256",
          "name": "tokenId",
          "type": "uint256"
        }
      ],
      "name": "lockToken",
      "outputs": [],
      "stateMutability": "nonpayable",
      "type": "function"
    },
    {
      "inputs": [
        {
          "internalType": "address",
          "name": "owner",
          "type": "address"
        },
        {
          "internalType": "address",
          "name": "to",
          "type": "address"
        },
        {
          "internalType": "uint256",
          "name": "tokenId",
          "type": "uint256"
        },
        {
          "internalType": "string",
          "name": "courseName",
          "type": "string"
        },
        {
          "internalType": "string",
          "name": "universityName",
          "type": "string"
        }
      ],
      "name": "mint",
      "outputs": [],
      "stateMutability": "nonpayable",
      "type": "function"
    },
    {
      "inputs": [],
      "name": "name",
      "outputs": [
        {
          "internalType": "string",
          "name": "",
          "type": "string"
        }
      ],
      "stateMutability": "view",
      "type": "function"
    },
    {
      "inputs": [],
      "name": "owner",
      "outputs": [
        {
          "internalType": "address",
          "name": "",
          "type": "address"
        }
      ],
      "stateMutability": "view",
      "type": "function"
    },
    {
      "inputs": [
        {
          "internalType": "uint256",
          "name": "tokenId",
          "type": "uint256"
        }
      ],
      "name": "ownerOf",
      "outputs": [
        {
          "internalType": "address",
          "name": "",
          "type": "address"
        }
      ],
      "stateMutability": "view",
      "type": "function"
    },
    {
      "inputs": [],
      "name": "renounceOwnership",
      "outputs": [],
      "stateMutability": "nonpayable",
      "type": "function"
    },
    {
      "inputs": [
        {
          "internalType": "address",
          "name": "from",
          "type": "address"
        },
        {
          "internalType": "address",
          "name": "to",
          "type": "address"
        },
        {
          "internalType": "uint256",
          "name": "tokenId",
          "type": "uint256"
        }
      ],
      "name": "safeTransferFrom",
      "outputs": [],
      "stateMutability": "nonpayable",
      "type": "function"
    },
    {
      "inputs": [
        {
          "internalType": "address",
          "name": "from",
          "type": "address"
        },
        {
          "internalType": "address",
          "name": "to",
          "type": "address"
        },
        {
          "internalType": "uint256",
          "name": "tokenId",
          "type": "uint256"
        },
        {
          "internalType": "bytes",
          "name": "data",
          "type": "bytes"
        }
      ],
      "name": "safeTransferFrom",
      "outputs": [],
      "stateMutability": "nonpayable",
      "type": "function"
    },
    {
      "inputs": [
        {
          "internalType": "address",
          "name": "operator",
          "type": "address"
        },
        {
          "internalType": "bool",
          "name": "approved",
          "type": "bool"
        }
      ],
      "name": "setApprovalForAll",
      "outputs": [],
      "stateMutability": "nonpayable",
      "type": "function"
    },
    {
      "inputs": [
        {
          "internalType": "bytes4",
          "name": "interfaceId",
          "type": "bytes4"
        }
      ],
      "name": "supportsInterface",
      "outputs": [
        {
          "internalType": "bool",
          "name": "",
          "type": "bool"
        }
      ],
      "stateMutability": "view",
      "type": "function"
    },
    {
      "inputs": [],
      "name": "symbol",
      "outputs": [
        {
          "internalType": "string",
          "name": "",
          "type": "string"
        }
      ],
      "stateMutability": "view",
      "type": "function"
    },
    {
      "inputs": [
        {
          "internalType": "uint256",
          "name": "tokenId",
          "type": "uint256"
        }
      ],
      "name": "tokenURI",
      "outputs": [
        {
          "internalType": "string",
          "name": "",
          "type": "string"
        }
      ],
      "stateMutability": "view",
      "type": "function"
    },
    {
      "inputs": [
        {
          "internalType": "address",
          "name": "from",
          "type": "address"
        },
        {
          "internalType": "address",
          "name": "to",
          "type": "address"
        },
        {
          "internalType": "uint256",
          "name": "tokenId",
          "type": "uint256"
        }
      ],
      "name": "transferFrom",
      "outputs": [],
      "stateMutability": "nonpayable",
      "type": "function"
    },
    {
      "inputs": [
        {
          "internalType": "address",
          "name": "newOwner",
          "type": "address"
        }
      ],
      "name": "transferOwnership",
      "outputs": [],
      "stateMutability": "nonpayable",
      "type": "function"
    }
  ],
  "bytecode": "0x60806040523480156200001157600080fd5b5060405162004194380380620041948339818101604052810190620000379190620002e8565b818181600090816200004a9190620005b8565b5080600190816200005c9190620005b8565b5050506200007f620000736200008760201b60201c565b6200008f60201b60201c565b50506200069f565b600033905090565b6000600660009054906101000a900473ffffffffffffffffffffffffffffffffffffffff16905081600660006101000a81548173ffffffffffffffffffffffffffffffffffffffff021916908373ffffffffffffffffffffffffffffffffffffffff1602179055508173ffffffffffffffffffffffffffffffffffffffff168173ffffffffffffffffffffffffffffffffffffffff167f8be0079c531659141344cd1fd0a4f28419497f9722a3daafe3b4186f6b6457e060405160405180910390a35050565b6000604051905090565b600080fd5b600080fd5b600080fd5b600080fd5b6000601f19601f8301169050919050565b7f4e487b7100000000000000000000000000000000000000000000000000000000600052604160045260246000fd5b620001be8262000173565b810181811067ffffffffffffffff82111715620001e057620001df62000184565b5b80604052505050565b6000620001f562000155565b9050620002038282620001b3565b919050565b600067ffffffffffffffff82111562000226576200022562000184565b5b620002318262000173565b9050602081019050919050565b60005b838110156200025e57808201518184015260208101905062000241565b60008484015250505050565b6000620002816200027b8462000208565b620001e9565b905082815260208101848484011115620002a0576200029f6200016e565b5b620002ad8482856200023e565b509392505050565b600082601f830112620002cd57620002cc62000169565b5b8151620002df8482602086016200026a565b91505092915050565b600080604083850312156200030257620003016200015f565b5b600083015167ffffffffffffffff81111562000323576200032262000164565b5b6200033185828601620002b5565b925050602083015167ffffffffffffffff81111562000355576200035462000164565b5b6200036385828601620002b5565b9150509250929050565b600081519050919050565b7f4e487b7100000000000000000000000000000000000000000000000000000000600052602260045260246000fd5b60006002820490506001821680620003c057607f821691505b602082108103620003d657620003d562000378565b5b50919050565b60008190508160005260206000209050919050565b60006020601f8301049050919050565b600082821b905092915050565b600060088302620004407fffffffffffffffffffffffffffffffffffffffffffffffffffffffffffffffff8262000401565b6200044c868362000401565b95508019841693508086168417925050509392505050565b6000819050919050565b6000819050919050565b600062000499620004936200048d8462000464565b6200046e565b62000464565b9050919050565b6000819050919050565b620004b58362000478565b620004cd620004c482620004a0565b8484546200040e565b825550505050565b600090565b620004e4620004d5565b620004f1818484620004aa565b505050565b5b8181101562000519576200050d600082620004da565b600181019050620004f7565b5050565b601f82111562000568576200053281620003dc565b6200053d84620003f1565b810160208510156200054d578190505b620005656200055c85620003f1565b830182620004f6565b50505b505050565b600082821c905092915050565b60006200058d600019846008026200056d565b1980831691505092915050565b6000620005a883836200057a565b9150826002028217905092915050565b620005c3826200036d565b67ffffffffffffffff811115620005df57620005de62000184565b5b620005eb8254620003a7565b620005f88282856200051d565b600060209050601f8311600181146200063057600084156200061b578287015190505b6200062785826200059a565b86555062000697565b601f1984166200064086620003dc565b60005b828110156200066a5784890151825560018201915060208501945060208101905062000643565b868310156200068a578489015162000686601f8916826200057a565b8355505b6001600288020188555050505b505050505050565b613ae580620006af6000396000f3fe608060405234801561001057600080fd5b50600436106101425760003560e01c806380f20363116100b8578063c87b56dd1161007c578063c87b56dd14610361578063e48ebb2514610391578063e985e9c5146103ad578063f2fde38b146103dd578063f73dbcd8146103f9578063f7928fb31461041857610142565b806380f20363146102d15780638da5cb5b146102ed57806395d89b411461030b578063a22cb46514610329578063b88d4fde1461034557610142565b8063276a28a31161010a578063276a28a3146101fd57806342842e0e1461022d5780636352211e1461024957806370a0823114610279578063715018a6146102a9578063789f4799146102b357610142565b806301ffc9a71461014757806306fdde0314610177578063081812fc14610195578063095ea7b3146101c557806323b872dd146101e1575b600080fd5b610161600480360381019061015c919061243f565b61044b565b60405161016e9190612487565b60405180910390f35b61017f61052d565b60405161018c9190612532565b60405180910390f35b6101af60048036038101906101aa919061258a565b6105bf565b6040516101bc91906125f8565b60405180910390f35b6101df60048036038101906101da919061263f565b610605565b005b6101fb60048036038101906101f6919061267f565b61071c565b005b6102176004803603810190610212919061258a565b6107b9565b6040516102249190612487565b60405180910390f35b6102476004803603810190610242919061267f565b6107e3565b005b610263600480360381019061025e919061258a565b610803565b60405161027091906125f8565b60405180910390f35b610293600480360381019061028e91906126d2565b610889565b6040516102a0919061270e565b60405180910390f35b6102b1610940565b005b6102bb610954565b6040516102c8919061270e565b60405180910390f35b6102eb60048036038101906102e6919061258a565b610961565b005b6102f5610a41565b60405161030291906125f8565b60405180910390f35b610313610a6b565b6040516103209190612532565b60405180910390f35b610343600480360381019061033e9190612755565b610afd565b005b61035f600480360381019061035a91906128ca565b610b13565b005b61037b6004803603810190610376919061258a565b610b75565b6040516103889190612532565b60405180910390f35b6103ab60048036038101906103a691906129ee565b610bdd565b005b6103c760048036038101906103c29190612aa1565b610d85565b6040516103d49190612487565b60405180910390f35b6103f760048036038101906103f291906126d2565b610e19565b005b610401610e9c565b60405161040f929190612d24565b60405180910390f35b610432600480360381019061042d919061258a565b6111a9565b6040516104429493929190612d5b565b60405180910390f35b60007f80ac58cd000000000000000000000000000000000000000000000000000000007bffffffffffffffffffffffffffffffffffffffffffffffffffffffff1916827bffffffffffffffffffffffffffffffffffffffffffffffffffffffff1916148061051657507f5b5e139f000000000000000000000000000000000000000000000000000000007bffffffffffffffffffffffffffffffffffffffffffffffffffffffff1916827bffffffffffffffffffffffffffffffffffffffffffffffffffffffff1916145b8061052657506105258261140d565b5b9050919050565b60606000805461053c90612ddd565b80601f016020809104026020016040519081016040528092919081815260200182805461056890612ddd565b80156105b55780601f1061058a576101008083540402835291602001916105b5565b820191906000526020600020905b81548152906001019060200180831161059857829003601f168201915b5050505050905090565b60006105ca82611477565b6004600083815260200190815260200160002060009054906101000a900473ffffffffffffffffffffffffffffffffffffffff169050919050565b600061061082610803565b90508073ffffffffffffffffffffffffffffffffffffffff168373ffffffffffffffffffffffffffffffffffffffff1603610680576040517f08c379a000000000000000000000000000000000000000000000000000000000815260040161067790612e80565b60405180910390fd5b8073ffffffffffffffffffffffffffffffffffffffff1661069f6114c2565b73ffffffffffffffffffffffffffffffffffffffff1614806106ce57506106cd816106c86114c2565b610d85565b5b61070d576040517f08c379a000000000000000000000000000000000000000000000000000000000815260040161070490612f12565b60405180910390fd5b61071783836114ca565b505050565b6007600082815260200190815260200160002060009054906101000a900460ff161561077d576040517f08c379a000000000000000000000000000000000000000000000000000000000815260040161077490612fa4565b60405180910390fd5b610788838383611583565b60016007600083815260200190815260200160002060006101000a81548160ff021916908315150217905550505050565b60006007600083815260200190815260200160002060009054906101000a900460ff169050919050565b6107fe83838360405180602001604052806000815250610b13565b505050565b60008061080f836115e3565b9050600073ffffffffffffffffffffffffffffffffffffffff168173ffffffffffffffffffffffffffffffffffffffff1603610880576040517f08c379a000000000000000000000000000000000000000000000000000000000815260040161087790613010565b60405180910390fd5b80915050919050565b60008073ffffffffffffffffffffffffffffffffffffffff168273ffffffffffffffffffffffffffffffffffffffff16036108f9576040517f08c379a00000000000000000000000000000000000000000000000000000000081526004016108f0906130a2565b60405180910390fd5b600360008373ffffffffffffffffffffffffffffffffffffffff1673ffffffffffffffffffffffffffffffffffffffff168152602001908152602001600020549050919050565b610948611620565b610952600061169e565b565b6000600880549050905090565b610969611620565b61097281611764565b6109b1576040517f08c379a00000000000000000000000000000000000000000000000000000000081526004016109a89061310e565b60405180910390fd5b6007600082815260200190815260200160002060009054906101000a900460ff1615610a12576040517f08c379a0000000000000000000000000000000000000000000000000000000008152600401610a099061317a565b60405180910390fd5b60016007600083815260200190815260200160002060006101000a81548160ff02191690831515021790555050565b6000600660009054906101000a900473ffffffffffffffffffffffffffffffffffffffff16905090565b606060018054610a7a90612ddd565b80601f0160208091040260200160405190810160405280929190818152602001828054610aa690612ddd565b8015610af35780601f10610ac857610100808354040283529160200191610af3565b820191906000526020600020905b815481529060010190602001808311610ad657829003601f168201915b5050505050905090565b610b0f610b086114c2565b83836117a5565b5050565b610b24610b1e6114c2565b83611911565b610b63576040517f08c379a0000000000000000000000000000000000000000000000000000000008152600401610b5a9061320c565b60405180910390fd5b610b6f848484846119a6565b50505050565b6060610b8082611477565b6000610b8a611a02565b90506000815111610baa5760405180602001604052806000815250610bd5565b80610bb484611a19565b604051602001610bc5929190613268565b6040516020818303038152906040525b915050919050565b610be5611620565b610bee83611764565b15610c2e576040517f08c379a0000000000000000000000000000000000000000000000000000000008152600401610c25906132d8565b60405180910390fd5b610c388584611ae7565b60405180608001604052808381526020018281526020018673ffffffffffffffffffffffffffffffffffffffff1681526020018573ffffffffffffffffffffffffffffffffffffffff16815250600960008581526020019081526020016000206000820151816000019081610cad91906134a4565b506020820151816001019081610cc391906134a4565b5060408201518160020160006101000a81548173ffffffffffffffffffffffffffffffffffffffff021916908373ffffffffffffffffffffffffffffffffffffffff16021790555060608201518160030160006101000a81548173ffffffffffffffffffffffffffffffffffffffff021916908373ffffffffffffffffffffffffffffffffffffffff16021790555090505060088390806001815401808255809150506001900390600052602060002001600090919091909150555050505050565b6000600560008473ffffffffffffffffffffffffffffffffffffffff1673ffffffffffffffffffffffffffffffffffffffff16815260200190815260200160002060008373ffffffffffffffffffffffffffffffffffffffff1673ffffffffffffffffffffffffffffffffffffffff16815260200190815260200160002060009054906101000a900460ff16905092915050565b610e21611620565b600073ffffffffffffffffffffffffffffffffffffffff168173ffffffffffffffffffffffffffffffffffffffff1603610e90576040517f08c379a0000000000000000000000000000000000000000000000000000000008152600401610e87906135e8565b60405180910390fd5b610e998161169e565b50565b6060806000600880549050905060008167ffffffffffffffff811115610ec557610ec461279f565b5b604051908082528060200260200182016040528015610efe57816020015b610eeb61237f565b815260200190600190039081610ee35790505b50905060005b8281101561114957600060088281548110610f2257610f21613608565b5b9060005260206000200154905060096000828152602001908152602001600020604051806080016040529081600082018054610f5d90612ddd565b80601f0160208091040260200160405190810160405280929190818152602001828054610f8990612ddd565b8015610fd65780601f10610fab57610100808354040283529160200191610fd6565b820191906000526020600020905b815481529060010190602001808311610fb957829003601f168201915b50505050508152602001600182018054610fef90612ddd565b80601f016020809104026020016040519081016040528092919081815260200182805461101b90612ddd565b80156110685780601f1061103d57610100808354040283529160200191611068565b820191906000526020600020905b81548152906001019060200180831161104b57829003601f168201915b505050505081526020016002820160009054906101000a900473ffffffffffffffffffffffffffffffffffffffff1673ffffffffffffffffffffffffffffffffffffffff1673ffffffffffffffffffffffffffffffffffffffff1681526020016003820160009054906101000a900473ffffffffffffffffffffffffffffffffffffffff1673ffffffffffffffffffffffffffffffffffffffff1673ffffffffffffffffffffffffffffffffffffffff16815250508383815181106111305761112f613608565b5b6020026020010181905250508080600101915050610f04565b506008818180548060200260200160405190810160405280929190818152602001828054801561119857602002820191906000526020600020905b815481526020019060010190808311611184575b505050505091509350935050509091565b6060806000806111b885611764565b6111f7576040517f08c379a00000000000000000000000000000000000000000000000000000000081526004016111ee9061310e565b60405180910390fd5b60006009600087815260200190815260200160002060405180608001604052908160008201805461122790612ddd565b80601f016020809104026020016040519081016040528092919081815260200182805461125390612ddd565b80156112a05780601f10611275576101008083540402835291602001916112a0565b820191906000526020600020905b81548152906001019060200180831161128357829003601f168201915b505050505081526020016001820180546112b990612ddd565b80601f01602080910402602001604051908101604052809291908181526020018280546112e590612ddd565b80156113325780601f1061130757610100808354040283529160200191611332565b820191906000526020600020905b81548152906001019060200180831161131557829003601f168201915b505050505081526020016002820160009054906101000a900473ffffffffffffffffffffffffffffffffffffffff1673ffffffffffffffffffffffffffffffffffffffff1673ffffffffffffffffffffffffffffffffffffffff1681526020016003820160009054906101000a900473ffffffffffffffffffffffffffffffffffffffff1673ffffffffffffffffffffffffffffffffffffffff1673ffffffffffffffffffffffffffffffffffffffff1681525050905080600001518160200151826040015183606001519450945094509450509193509193565b60007f01ffc9a7000000000000000000000000000000000000000000000000000000007bffffffffffffffffffffffffffffffffffffffffffffffffffffffff1916827bffffffffffffffffffffffffffffffffffffffffffffffffffffffff1916149050919050565b61148081611764565b6114bf576040517f08c379a00000000000000000000000000000000000000000000000000000000081526004016114b690613010565b60405180910390fd5b50565b600033905090565b816004600083815260200190815260200160002060006101000a81548173ffffffffffffffffffffffffffffffffffffffff021916908373ffffffffffffffffffffffffffffffffffffffff160217905550808273ffffffffffffffffffffffffffffffffffffffff1661153d83610803565b73ffffffffffffffffffffffffffffffffffffffff167f8c5be1e5ebec7d5bd14f71427d1e84f3dd0314c0f7b2291e5b200ac8c7c3b92560405160405180910390a45050565b61159461158e6114c2565b82611911565b6115d3576040517f08c379a00000000000000000000000000000000000000000000000000000000081526004016115ca9061320c565b60405180910390fd5b6115de838383611b05565b505050565b60006002600083815260200190815260200160002060009054906101000a900473ffffffffffffffffffffffffffffffffffffffff169050919050565b6116286114c2565b73ffffffffffffffffffffffffffffffffffffffff16611646610a41565b73ffffffffffffffffffffffffffffffffffffffff161461169c576040517f08c379a000000000000000000000000000000000000000000000000000000000815260040161169390613683565b60405180910390fd5b565b6000600660009054906101000a900473ffffffffffffffffffffffffffffffffffffffff16905081600660006101000a81548173ffffffffffffffffffffffffffffffffffffffff021916908373ffffffffffffffffffffffffffffffffffffffff1602179055508173ffffffffffffffffffffffffffffffffffffffff168173ffffffffffffffffffffffffffffffffffffffff167f8be0079c531659141344cd1fd0a4f28419497f9722a3daafe3b4186f6b6457e060405160405180910390a35050565b60008073ffffffffffffffffffffffffffffffffffffffff16611786836115e3565b73ffffffffffffffffffffffffffffffffffffffff1614159050919050565b8173ffffffffffffffffffffffffffffffffffffffff168373ffffffffffffffffffffffffffffffffffffffff1603611813576040517f08c379a000000000000000000000000000000000000000000000000000000000815260040161180a906136ef565b60405180910390fd5b80600560008573ffffffffffffffffffffffffffffffffffffffff1673ffffffffffffffffffffffffffffffffffffffff16815260200190815260200160002060008473ffffffffffffffffffffffffffffffffffffffff1673ffffffffffffffffffffffffffffffffffffffff16815260200190815260200160002060006101000a81548160ff0219169083151502179055508173ffffffffffffffffffffffffffffffffffffffff168373ffffffffffffffffffffffffffffffffffffffff167f17307eab39ab6107e8899845ad3d59bd9653f200f220920489ca2b5937696c31836040516119049190612487565b60405180910390a3505050565b60008061191d83610803565b90508073ffffffffffffffffffffffffffffffffffffffff168473ffffffffffffffffffffffffffffffffffffffff16148061195f575061195e8185610d85565b5b8061199d57508373ffffffffffffffffffffffffffffffffffffffff16611985846105bf565b73ffffffffffffffffffffffffffffffffffffffff16145b91505092915050565b6119b1848484611b05565b6119bd84848484611dfe565b6119fc576040517f08c379a00000000000000000000000000000000000000000000000000000000081526004016119f390613781565b60405180910390fd5b50505050565b606060405180602001604052806000815250905090565b606060006001611a2884611f85565b01905060008167ffffffffffffffff811115611a4757611a4661279f565b5b6040519080825280601f01601f191660200182016040528015611a795781602001600182028036833780820191505090505b509050600082602001820190505b600115611adc578080600190039150507f3031323334353637383961626364656600000000000000000000000000000000600a86061a8153600a8581611ad057611acf6137a1565b5b04945060008503611a87575b819350505050919050565b611b018282604051806020016040528060008152506120d8565b5050565b8273ffffffffffffffffffffffffffffffffffffffff16611b2582610803565b73ffffffffffffffffffffffffffffffffffffffff1614611b7b576040517f08c379a0000000000000000000000000000000000000000000000000000000008152600401611b7290613842565b60405180910390fd5b600073ffffffffffffffffffffffffffffffffffffffff168273ffffffffffffffffffffffffffffffffffffffff1603611bea576040517f08c379a0000000000000000000000000000000000000000000000000000000008152600401611be1906138d4565b60405180910390fd5b611bf78383836001612133565b8273ffffffffffffffffffffffffffffffffffffffff16611c1782610803565b73ffffffffffffffffffffffffffffffffffffffff1614611c6d576040517f08c379a0000000000000000000000000000000000000000000000000000000008152600401611c6490613842565b60405180910390fd5b6004600082815260200190815260200160002060006101000a81549073ffffffffffffffffffffffffffffffffffffffff02191690556001600360008573ffffffffffffffffffffffffffffffffffffffff1673ffffffffffffffffffffffffffffffffffffffff168152602001908152602001600020600082825403925050819055506001600360008473ffffffffffffffffffffffffffffffffffffffff1673ffffffffffffffffffffffffffffffffffffffff16815260200190815260200160002060008282540192505081905550816002600083815260200190815260200160002060006101000a81548173ffffffffffffffffffffffffffffffffffffffff021916908373ffffffffffffffffffffffffffffffffffffffff160217905550808273ffffffffffffffffffffffffffffffffffffffff168473ffffffffffffffffffffffffffffffffffffffff167fddf252ad1be2c89b69c2b068fc378daa952ba7f163c4a11628f55a4df523b3ef60405160405180910390a4611df98383836001612139565b505050565b6000611e1f8473ffffffffffffffffffffffffffffffffffffffff1661213f565b15611f78578373ffffffffffffffffffffffffffffffffffffffff1663150b7a02611e486114c2565b8786866040518563ffffffff1660e01b8152600401611e6a9493929190613949565b6020604051808303816000875af1925050508015611ea657506040513d601f19601f82011682018060405250810190611ea391906139aa565b60015b611f28573d8060008114611ed6576040519150601f19603f3d011682016040523d82523d6000602084013e611edb565b606091505b506000815103611f20576040517f08c379a0000000000000000000000000000000000000000000000000000000008152600401611f1790613781565b60405180910390fd5b805181602001fd5b63150b7a0260e01b7bffffffffffffffffffffffffffffffffffffffffffffffffffffffff1916817bffffffffffffffffffffffffffffffffffffffffffffffffffffffff191614915050611f7d565b600190505b949350505050565b600080600090507a184f03e93ff9f4daa797ed6e38ed64bf6a1f0100000000000000008310611fe3577a184f03e93ff9f4daa797ed6e38ed64bf6a1f0100000000000000008381611fd957611fd86137a1565b5b0492506040810190505b6d04ee2d6d415b85acef81000000008310612020576d04ee2d6d415b85acef81000000008381612016576120156137a1565b5b0492506020810190505b662386f26fc10000831061204f57662386f26fc100008381612045576120446137a1565b5b0492506010810190505b6305f5e1008310612078576305f5e100838161206e5761206d6137a1565b5b0492506008810190505b612710831061209d576127108381612093576120926137a1565b5b0492506004810190505b606483106120c057606483816120b6576120b56137a1565b5b0492506002810190505b600a83106120cf576001810190505b80915050919050565b6120e28383612162565b6120ef6000848484611dfe565b61212e576040517f08c379a000000000000000000000000000000000000000000000000000000000815260040161212590613781565b60405180910390fd5b505050565b50505050565b50505050565b6000808273ffffffffffffffffffffffffffffffffffffffff163b119050919050565b600073ffffffffffffffffffffffffffffffffffffffff168273ffffffffffffffffffffffffffffffffffffffff16036121d1576040517f08c379a00000000000000000000000000000000000000000000000000000000081526004016121c890613a23565b60405180910390fd5b6121da81611764565b1561221a576040517f08c379a000000000000000000000000000000000000000000000000000000000815260040161221190613a8f565b60405180910390fd5b612228600083836001612133565b61223181611764565b15612271576040517f08c379a000000000000000000000000000000000000000000000000000000000815260040161226890613a8f565b60405180910390fd5b6001600360008473ffffffffffffffffffffffffffffffffffffffff1673ffffffffffffffffffffffffffffffffffffffff16815260200190815260200160002060008282540192505081905550816002600083815260200190815260200160002060006101000a81548173ffffffffffffffffffffffffffffffffffffffff021916908373ffffffffffffffffffffffffffffffffffffffff160217905550808273ffffffffffffffffffffffffffffffffffffffff16600073ffffffffffffffffffffffffffffffffffffffff167fddf252ad1be2c89b69c2b068fc378daa952ba7f163c4a11628f55a4df523b3ef60405160405180910390a461237b600083836001612139565b5050565b60405180608001604052806060815260200160608152602001600073ffffffffffffffffffffffffffffffffffffffff168152602001600073ffffffffffffffffffffffffffffffffffffffff1681525090565b6000604051905090565b600080fd5b600080fd5b60007fffffffff0000000000000000000000000000000000000000000000000000000082169050919050565b61241c816123e7565b811461242757600080fd5b50565b60008135905061243981612413565b92915050565b600060208284031215612455576124546123dd565b5b60006124638482850161242a565b91505092915050565b60008115159050919050565b6124818161246c565b82525050565b600060208201905061249c6000830184612478565b92915050565b600081519050919050565b600082825260208201905092915050565b60005b838110156124dc5780820151818401526020810190506124c1565b60008484015250505050565b6000601f19601f8301169050919050565b6000612504826124a2565b61250e81856124ad565b935061251e8185602086016124be565b612527816124e8565b840191505092915050565b6000602082019050818103600083015261254c81846124f9565b905092915050565b6000819050919050565b61256781612554565b811461257257600080fd5b50565b6000813590506125848161255e565b92915050565b6000602082840312156125a05761259f6123dd565b5b60006125ae84828501612575565b91505092915050565b600073ffffffffffffffffffffffffffffffffffffffff82169050919050565b60006125e2826125b7565b9050919050565b6125f2816125d7565b82525050565b600060208201905061260d60008301846125e9565b92915050565b61261c816125d7565b811461262757600080fd5b50565b60008135905061263981612613565b92915050565b60008060408385031215612656576126556123dd565b5b60006126648582860161262a565b925050602061267585828601612575565b9150509250929050565b600080600060608486031215612698576126976123dd565b5b60006126a68682870161262a565b93505060206126b78682870161262a565b92505060406126c886828701612575565b9150509250925092565b6000602082840312156126e8576126e76123dd565b5b60006126f68482850161262a565b91505092915050565b61270881612554565b82525050565b600060208201905061272360008301846126ff565b92915050565b6127328161246c565b811461273d57600080fd5b50565b60008135905061274f81612729565b92915050565b6000806040838503121561276c5761276b6123dd565b5b600061277a8582860161262a565b925050602061278b85828601612740565b9150509250929050565b600080fd5b600080fd5b7f4e487b7100000000000000000000000000000000000000000000000000000000600052604160045260246000fd5b6127d7826124e8565b810181811067ffffffffffffffff821117156127f6576127f561279f565b5b80604052505050565b60006128096123d3565b905061281582826127ce565b919050565b600067ffffffffffffffff8211156128355761283461279f565b5b61283e826124e8565b9050602081019050919050565b82818337600083830152505050565b600061286d6128688461281a565b6127ff565b9050828152602081018484840111156128895761288861279a565b5b61289484828561284b565b509392505050565b600082601f8301126128b1576128b0612795565b5b81356128c184826020860161285a565b91505092915050565b600080600080608085870312156128e4576128e36123dd565b5b60006128f28782880161262a565b94505060206129038782880161262a565b935050604061291487828801612575565b925050606085013567ffffffffffffffff811115612935576129346123e2565b5b6129418782880161289c565b91505092959194509250565b600067ffffffffffffffff8211156129685761296761279f565b5b612971826124e8565b9050602081019050919050565b600061299161298c8461294d565b6127ff565b9050828152602081018484840111156129ad576129ac61279a565b5b6129b884828561284b565b509392505050565b600082601f8301126129d5576129d4612795565b5b81356129e584826020860161297e565b91505092915050565b600080600080600060a08688031215612a0a57612a096123dd565b5b6000612a188882890161262a565b9550506020612a298882890161262a565b9450506040612a3a88828901612575565b935050606086013567ffffffffffffffff811115612a5b57612a5a6123e2565b5b612a67888289016129c0565b925050608086013567ffffffffffffffff811115612a8857612a876123e2565b5b612a94888289016129c0565b9150509295509295909350565b60008060408385031215612ab857612ab76123dd565b5b6000612ac68582860161262a565b9250506020612ad78582860161262a565b9150509250929050565b600081519050919050565b600082825260208201905092915050565b6000819050602082019050919050565b612b1681612554565b82525050565b6000612b288383612b0d565b60208301905092915050565b6000602082019050919050565b6000612b4c82612ae1565b612b568185612aec565b9350612b6183612afd565b8060005b83811015612b92578151612b798882612b1c565b9750612b8483612b34565b925050600181019050612b65565b5085935050505092915050565b600081519050919050565b600082825260208201905092915050565b6000819050602082019050919050565b600082825260208201905092915050565b6000612be7826124a2565b612bf18185612bcb565b9350612c018185602086016124be565b612c0a816124e8565b840191505092915050565b612c1e816125d7565b82525050565b60006080830160008301518482036000860152612c418282612bdc565b91505060208301518482036020860152612c5b8282612bdc565b9150506040830151612c706040860182612c15565b506060830151612c836060860182612c15565b508091505092915050565b6000612c9a8383612c24565b905092915050565b6000602082019050919050565b6000612cba82612b9f565b612cc48185612baa565b935083602082028501612cd685612bbb565b8060005b85811015612d125784840389528151612cf38582612c8e565b9450612cfe83612ca2565b925060208a01995050600181019050612cda565b50829750879550505050505092915050565b60006040820190508181036000830152612d3e8185612b41565b90508181036020830152612d528184612caf565b90509392505050565b60006080820190508181036000830152612d7581876124f9565b90508181036020830152612d8981866124f9565b9050612d9860408301856125e9565b612da560608301846125e9565b95945050505050565b7f4e487b7100000000000000000000000000000000000000000000000000000000600052602260045260246000fd5b60006002820490506001821680612df557607f821691505b602082108103612e0857612e07612dae565b5b50919050565b7f4552433732313a20617070726f76616c20746f2063757272656e74206f776e6560008201527f7200000000000000000000000000000000000000000000000000000000000000602082015250565b6000612e6a6021836124ad565b9150612e7582612e0e565b604082019050919050565b60006020820190508181036000830152612e9981612e5d565b9050919050565b7f4552433732313a20617070726f76652063616c6c6572206973206e6f7420746f60008201527f6b656e206f776e6572206f7220617070726f76656420666f7220616c6c000000602082015250565b6000612efc603d836124ad565b9150612f0782612ea0565b604082019050919050565b60006020820190508181036000830152612f2b81612eef565b9050919050565b7f546f6b656e206973206c6f636b656420616e642063616e6e6f7420626520747260008201527f616e736665727265640000000000000000000000000000000000000000000000602082015250565b6000612f8e6029836124ad565b9150612f9982612f32565b604082019050919050565b60006020820190508181036000830152612fbd81612f81565b9050919050565b7f4552433732313a20696e76616c696420746f6b656e2049440000000000000000600082015250565b6000612ffa6018836124ad565b915061300582612fc4565b602082019050919050565b6000602082019050818103600083015261302981612fed565b9050919050565b7f4552433732313a2061646472657373207a65726f206973206e6f74206120766160008201527f6c6964206f776e65720000000000000000000000000000000000000000000000602082015250565b600061308c6029836124ad565b915061309782613030565b604082019050919050565b600060208201905081810360008301526130bb8161307f565b9050919050565b7f546f6b656e20494420646f6573206e6f74206578697374000000000000000000600082015250565b60006130f86017836124ad565b9150613103826130c2565b602082019050919050565b60006020820190508181036000830152613127816130eb565b9050919050565b7f546f6b656e20697320616c7265616479206c6f636b6564000000000000000000600082015250565b60006131646017836124ad565b915061316f8261312e565b602082019050919050565b6000602082019050818103600083015261319381613157565b9050919050565b7f4552433732313a2063616c6c6572206973206e6f7420746f6b656e206f776e6560008201527f72206f7220617070726f76656400000000000000000000000000000000000000602082015250565b60006131f6602d836124ad565b91506132018261319a565b604082019050919050565b60006020820190508181036000830152613225816131e9565b9050919050565b600081905092915050565b6000613242826124a2565b61324c818561322c565b935061325c8185602086016124be565b80840191505092915050565b60006132748285613237565b91506132808284613237565b91508190509392505050565b7f546f6b656e20494420616c726561647920657869737473000000000000000000600082015250565b60006132c26017836124ad565b91506132cd8261328c565b602082019050919050565b600060208201905081810360008301526132f1816132b5565b9050919050565b60008190508160005260206000209050919050565b60006020601f8301049050919050565b600082821b905092915050565b60006008830261335a7fffffffffffffffffffffffffffffffffffffffffffffffffffffffffffffffff8261331d565b613364868361331d565b95508019841693508086168417925050509392505050565b6000819050919050565b60006133a161339c61339784612554565b61337c565b612554565b9050919050565b6000819050919050565b6133bb83613386565b6133cf6133c7826133a8565b84845461332a565b825550505050565b600090565b6133e46133d7565b6133ef8184846133b2565b505050565b5b81811015613413576134086000826133dc565b6001810190506133f5565b5050565b601f82111561345857613429816132f8565b6134328461330d565b81016020851015613441578190505b61345561344d8561330d565b8301826133f4565b50505b505050565b600082821c905092915050565b600061347b6000198460080261345d565b1980831691505092915050565b6000613494838361346a565b9150826002028217905092915050565b6134ad826124a2565b67ffffffffffffffff8111156134c6576134c561279f565b5b6134d08254612ddd565b6134db828285613417565b600060209050601f83116001811461350e57600084156134fc578287015190505b6135068582613488565b86555061356e565b601f19841661351c866132f8565b60005b828110156135445784890151825560018201915060208501945060208101905061351f565b86831015613561578489015161355d601f89168261346a565b8355505b6001600288020188555050505b505050505050565b7f4f776e61626c653a206e6577206f776e657220697320746865207a65726f206160008201527f6464726573730000000000000000000000000000000000000000000000000000602082015250565b60006135d26026836124ad565b91506135dd82613576565b604082019050919050565b60006020820190508181036000830152613601816135c5565b9050919050565b7f4e487b7100000000000000000000000000000000000000000000000000000000600052603260045260246000fd5b7f4f776e61626c653a2063616c6c6572206973206e6f7420746865206f776e6572600082015250565b600061366d6020836124ad565b915061367882613637565b602082019050919050565b6000602082019050818103600083015261369c81613660565b9050919050565b7f4552433732313a20617070726f766520746f2063616c6c657200000000000000600082015250565b60006136d96019836124ad565b91506136e4826136a3565b602082019050919050565b60006020820190508181036000830152613708816136cc565b9050919050565b7f4552433732313a207472616e7366657220746f206e6f6e20455243373231526560008201527f63656976657220696d706c656d656e7465720000000000000000000000000000602082015250565b600061376b6032836124ad565b91506137768261370f565b604082019050919050565b6000602082019050818103600083015261379a8161375e565b9050919050565b7f4e487b7100000000000000000000000000000000000000000000000000000000600052601260045260246000fd5b7f4552433732313a207472616e736665722066726f6d20696e636f72726563742060008201527f6f776e6572000000000000000000000000000000000000000000000000000000602082015250565b600061382c6025836124ad565b9150613837826137d0565b604082019050919050565b6000602082019050818103600083015261385b8161381f565b9050919050565b7f4552433732313a207472616e7366657220746f20746865207a65726f2061646460008201527f7265737300000000000000000000000000000000000000000000000000000000602082015250565b60006138be6024836124ad565b91506138c982613862565b604082019050919050565b600060208201905081810360008301526138ed816138b1565b9050919050565b600081519050919050565b600082825260208201905092915050565b600061391b826138f4565b61392581856138ff565b93506139358185602086016124be565b61393e816124e8565b840191505092915050565b600060808201905061395e60008301876125e9565b61396b60208301866125e9565b61397860408301856126ff565b818103606083015261398a8184613910565b905095945050505050565b6000815190506139a481612413565b92915050565b6000602082840312156139c0576139bf6123dd565b5b60006139ce84828501613995565b91505092915050565b7f4552433732313a206d696e7420746f20746865207a65726f2061646472657373600082015250565b6000613a0d6020836124ad565b9150613a18826139d7565b602082019050919050565b60006020820190508181036000830152613a3c81613a00565b9050919050565b7f4552433732313a20746f6b656e20616c7265616479206d696e74656400000000600082015250565b6000613a79601c836124ad565b9150613a8482613a43565b602082019050919050565b60006020820190508181036000830152613aa881613a6c565b905091905056fea264697066735822122055e5552c4ed212fdbaaeb87f935887fdd276784494a27244495d37534dc6003964736f6c63430008180033",
  "linkReferences": {},
  "deployedLinkReferences": {}
}