{
  "_format": "hh-sol-artifact-1",
  "contractName": "UniversityDegree",
  "sourceName": "contracts/UniversityDegree.sol",
  "abi": [
    {
      "inputs": [
        {
          "internalType": "string",
          "name": "name",
          "type": "string"
        },
        {
          "internalType": "string",
          "name": "symbol",
          "type": "string"
        }
      ],
      "stateMutability": "nonpayable",
      "type": "constructor"
    },
    {
      "anonymous": false,
      "inputs": [
        {
          "indexed": true,
          "internalType": "address",
          "name": "owner",
          "type": "address"
        },
        {
          "indexed": true,
          "internalType": "address",
          "name": "approved",
          "type": "address"
        },
        {
          "indexed": true,
          "internalType": "uint256",
          "name": "tokenId",
          "type": "uint256"
        }
      ],
      "name": "Approval",
      "type": "event"
    },
    {
      "anonymous": false,
      "inputs": [
        {
          "indexed": true,
          "internalType": "address",
          "name": "owner",
          "type": "address"
        },
        {
          "indexed": true,
          "internalType": "address",
          "name": "operator",
          "type": "address"
        },
        {
          "indexed": false,
          "internalType": "bool",
          "name": "approved",
          "type": "bool"
        }
      ],
      "name": "ApprovalForAll",
      "type": "event"
    },
    {
      "anonymous": false,
      "inputs": [
        {
          "indexed": true,
          "internalType": "address",
          "name": "previousOwner",
          "type": "address"
        },
        {
          "indexed": true,
          "internalType": "address",
          "name": "newOwner",
          "type": "address"
        }
      ],
      "name": "OwnershipTransferred",
      "type": "event"
    },
    {
      "anonymous": false,
      "inputs": [
        {
          "indexed": true,
          "internalType": "address",
          "name": "from",
          "type": "address"
        },
        {
          "indexed": true,
          "internalType": "address",
          "name": "to",
          "type": "address"
        },
        {
          "indexed": true,
          "internalType": "uint256",
          "name": "tokenId",
          "type": "uint256"
        }
      ],
      "name": "Transfer",
      "type": "event"
    },
    {
      "inputs": [
        {
          "internalType": "address",
          "name": "to",
          "type": "address"
        },
        {
          "internalType": "uint256",
          "name": "tokenId",
          "type": "uint256"
        }
      ],
      "name": "approve",
      "outputs": [],
      "stateMutability": "nonpayable",
      "type": "function"
    },
    {
      "inputs": [
        {
          "internalType": "address",
          "name": "owner",
          "type": "address"
        }
      ],
      "name": "balanceOf",
      "outputs": [
        {
          "internalType": "uint256",
          "name": "",
          "type": "uint256"
        }
      ],
      "stateMutability": "view",
      "type": "function"
    },
    {
      "inputs": [
        {
          "internalType": "uint256",
          "name": "tokenId",
          "type": "uint256"
        }
      ],
      "name": "getApproved",
      "outputs": [
        {
          "internalType": "address",
          "name": "",
          "type": "address"
        }
      ],
      "stateMutability": "view",
      "type": "function"
    },
    {
      "inputs": [
        {
          "internalType": "uint256",
          "name": "tokenId",
          "type": "uint256"
        }
      ],
      "name": "getDegree",
      "outputs": [
        {
          "internalType": "string",
          "name": "courseName",
          "type": "string"
        },
        {
          "internalType": "string",
          "name": "universityName",
          "type": "string"
        },
        {
          "internalType": "address",
          "name": "owner",
          "type": "address"
        },
        {
          "internalType": "address",
          "name": "to",
          "type": "address"
        }
      ],
      "stateMutability": "view",
      "type": "function"
    },
    {
      "inputs": [
        {
          "internalType": "address",
          "name": "owner",
          "type": "address"
        },
        {
          "internalType": "address",
          "name": "operator",
          "type": "address"
        }
      ],
      "name": "isApprovedForAll",
      "outputs": [
        {
          "internalType": "bool",
          "name": "",
          "type": "bool"
        }
      ],
      "stateMutability": "view",
      "type": "function"
    },
    {
      "inputs": [
        {
          "internalType": "uint256",
          "name": "tokenId",
          "type": "uint256"
        }
      ],
      "name": "isTokenLocked",
      "outputs": [
        {
          "internalType": "bool",
          "name": "",
          "type": "bool"
        }
      ],
      "stateMutability": "view",
      "type": "function"
    },
    {
      "inputs": [
        {
          "internalType": "uint256",
          "name": "tokenId",
          "type": "uint256"
        }
      ],
      "name": "lockToken",
      "outputs": [],
      "stateMutability": "nonpayable",
      "type": "function"
    },
    {
      "inputs": [
        {
          "internalType": "address",
          "name": "owner",
          "type": "address"
        },
        {
          "internalType": "address",
          "name": "to",
          "type": "address"
        },
        {
          "internalType": "uint256",
          "name": "tokenId",
          "type": "uint256"
        },
        {
          "internalType": "string",
          "name": "courseName",
          "type": "string"
        },
        {
          "internalType": "string",
          "name": "universityName",
          "type": "string"
        }
      ],
      "name": "mint",
      "outputs": [],
      "stateMutability": "nonpayable",
      "type": "function"
    },
    {
      "inputs": [],
      "name": "name",
      "outputs": [
        {
          "internalType": "string",
          "name": "",
          "type": "string"
        }
      ],
      "stateMutability": "view",
      "type": "function"
    },
    {
      "inputs": [],
      "name": "owner",
      "outputs": [
        {
          "internalType": "address",
          "name": "",
          "type": "address"
        }
      ],
      "stateMutability": "view",
      "type": "function"
    },
    {
      "inputs": [
        {
          "internalType": "uint256",
          "name": "tokenId",
          "type": "uint256"
        }
      ],
      "name": "ownerOf",
      "outputs": [
        {
          "internalType": "address",
          "name": "",
          "type": "address"
        }
      ],
      "stateMutability": "view",
      "type": "function"
    },
    {
      "inputs": [],
      "name": "renounceOwnership",
      "outputs": [],
      "stateMutability": "nonpayable",
      "type": "function"
    },
    {
      "inputs": [
        {
          "internalType": "address",
          "name": "from",
          "type": "address"
        },
        {
          "internalType": "address",
          "name": "to",
          "type": "address"
        },
        {
          "internalType": "uint256",
          "name": "tokenId",
          "type": "uint256"
        }
      ],
      "name": "safeTransferFrom",
      "outputs": [],
      "stateMutability": "nonpayable",
      "type": "function"
    },
    {
      "inputs": [
        {
          "internalType": "address",
          "name": "from",
          "type": "address"
        },
        {
          "internalType": "address",
          "name": "to",
          "type": "address"
        },
        {
          "internalType": "uint256",
          "name": "tokenId",
          "type": "uint256"
        },
        {
          "internalType": "bytes",
          "name": "data",
          "type": "bytes"
        }
      ],
      "name": "safeTransferFrom",
      "outputs": [],
      "stateMutability": "nonpayable",
      "type": "function"
    },
    {
      "inputs": [
        {
          "internalType": "address",
          "name": "operator",
          "type": "address"
        },
        {
          "internalType": "bool",
          "name": "approved",
          "type": "bool"
        }
      ],
      "name": "setApprovalForAll",
      "outputs": [],
      "stateMutability": "nonpayable",
      "type": "function"
    },
    {
      "inputs": [
        {
          "internalType": "bytes4",
          "name": "interfaceId",
          "type": "bytes4"
        }
      ],
      "name": "supportsInterface",
      "outputs": [
        {
          "internalType": "bool",
          "name": "",
          "type": "bool"
        }
      ],
      "stateMutability": "view",
      "type": "function"
    },
    {
      "inputs": [],
      "name": "symbol",
      "outputs": [
        {
          "internalType": "string",
          "name": "",
          "type": "string"
        }
      ],
      "stateMutability": "view",
      "type": "function"
    },
    {
      "inputs": [
        {
          "internalType": "uint256",
          "name": "tokenId",
          "type": "uint256"
        }
      ],
      "name": "tokenURI",
      "outputs": [
        {
          "internalType": "string",
          "name": "",
          "type": "string"
        }
      ],
      "stateMutability": "view",
      "type": "function"
    },
    {
      "inputs": [
        {
          "internalType": "address",
          "name": "from",
          "type": "address"
        },
        {
          "internalType": "address",
          "name": "to",
          "type": "address"
        },
        {
          "internalType": "uint256",
          "name": "tokenId",
          "type": "uint256"
        }
      ],
      "name": "transferFrom",
      "outputs": [],
      "stateMutability": "nonpayable",
      "type": "function"
    },
    {
      "inputs": [
        {
          "internalType": "address",
          "name": "newOwner",
          "type": "address"
        }
      ],
      "name": "transferOwnership",
      "outputs": [],
      "stateMutability": "nonpayable",
      "type": "function"
    }
  ],
  "bytecode": "0x60806040523480156200001157600080fd5b5060405162003b0138038062003b018339818101604052810190620000379190620002e8565b818181600090816200004a9190620005b8565b5080600190816200005c9190620005b8565b5050506200007f620000736200008760201b60201c565b6200008f60201b60201c565b50506200069f565b600033905090565b6000600660009054906101000a900473ffffffffffffffffffffffffffffffffffffffff16905081600660006101000a81548173ffffffffffffffffffffffffffffffffffffffff021916908373ffffffffffffffffffffffffffffffffffffffff1602179055508173ffffffffffffffffffffffffffffffffffffffff168173ffffffffffffffffffffffffffffffffffffffff167f8be0079c531659141344cd1fd0a4f28419497f9722a3daafe3b4186f6b6457e060405160405180910390a35050565b6000604051905090565b600080fd5b600080fd5b600080fd5b600080fd5b6000601f19601f8301169050919050565b7f4e487b7100000000000000000000000000000000000000000000000000000000600052604160045260246000fd5b620001be8262000173565b810181811067ffffffffffffffff82111715620001e057620001df62000184565b5b80604052505050565b6000620001f562000155565b9050620002038282620001b3565b919050565b600067ffffffffffffffff82111562000226576200022562000184565b5b620002318262000173565b9050602081019050919050565b60005b838110156200025e57808201518184015260208101905062000241565b60008484015250505050565b6000620002816200027b8462000208565b620001e9565b905082815260208101848484011115620002a0576200029f6200016e565b5b620002ad8482856200023e565b509392505050565b600082601f830112620002cd57620002cc62000169565b5b8151620002df8482602086016200026a565b91505092915050565b600080604083850312156200030257620003016200015f565b5b600083015167ffffffffffffffff81111562000323576200032262000164565b5b6200033185828601620002b5565b925050602083015167ffffffffffffffff81111562000355576200035462000164565b5b6200036385828601620002b5565b9150509250929050565b600081519050919050565b7f4e487b7100000000000000000000000000000000000000000000000000000000600052602260045260246000fd5b60006002820490506001821680620003c057607f821691505b602082108103620003d657620003d562000378565b5b50919050565b60008190508160005260206000209050919050565b60006020601f8301049050919050565b600082821b905092915050565b600060088302620004407fffffffffffffffffffffffffffffffffffffffffffffffffffffffffffffffff8262000401565b6200044c868362000401565b95508019841693508086168417925050509392505050565b6000819050919050565b6000819050919050565b600062000499620004936200048d8462000464565b6200046e565b62000464565b9050919050565b6000819050919050565b620004b58362000478565b620004cd620004c482620004a0565b8484546200040e565b825550505050565b600090565b620004e4620004d5565b620004f1818484620004aa565b505050565b5b8181101562000519576200050d600082620004da565b600181019050620004f7565b5050565b601f82111562000568576200053281620003dc565b6200053d84620003f1565b810160208510156200054d578190505b620005656200055c85620003f1565b830182620004f6565b50505b505050565b600082821c905092915050565b60006200058d600019846008026200056d565b1980831691505092915050565b6000620005a883836200057a565b9150826002028217905092915050565b620005c3826200036d565b67ffffffffffffffff811115620005df57620005de62000184565b5b620005eb8254620003a7565b620005f88282856200051d565b600060209050601f8311600181146200063057600084156200061b578287015190505b6200062785826200059a565b86555062000697565b601f1984166200064086620003dc565b60005b828110156200066a5784890151825560018201915060208501945060208101905062000643565b868310156200068a578489015162000686601f8916826200057a565b8355505b6001600288020188555050505b505050505050565b61345280620006af6000396000f3fe608060405234801561001057600080fd5b506004361061012c5760003560e01c806380f20363116100ad578063c87b56dd11610071578063c87b56dd1461032d578063e48ebb251461035d578063e985e9c514610379578063f2fde38b146103a9578063f7928fb3146103c55761012c565b806380f203631461029d5780638da5cb5b146102b957806395d89b41146102d7578063a22cb465146102f5578063b88d4fde146103115761012c565b8063276a28a3116100f4578063276a28a3146101e757806342842e0e146102175780636352211e1461023357806370a0823114610263578063715018a6146102935761012c565b806301ffc9a71461013157806306fdde0314610161578063081812fc1461017f578063095ea7b3146101af57806323b872dd146101cb575b600080fd5b61014b60048036038101906101469190612055565b6103f8565b604051610158919061209d565b60405180910390f35b6101696104da565b6040516101769190612148565b60405180910390f35b610199600480360381019061019491906121a0565b61056c565b6040516101a6919061220e565b60405180910390f35b6101c960048036038101906101c49190612255565b6105b2565b005b6101e560048036038101906101e09190612295565b6106c9565b005b61020160048036038101906101fc91906121a0565b610766565b60405161020e919061209d565b60405180910390f35b610231600480360381019061022c9190612295565b610790565b005b61024d600480360381019061024891906121a0565b6107b0565b60405161025a919061220e565b60405180910390f35b61027d600480360381019061027891906122e8565b610836565b60405161028a9190612324565b60405180910390f35b61029b6108ed565b005b6102b760048036038101906102b291906121a0565b610901565b005b6102c16109e1565b6040516102ce919061220e565b60405180910390f35b6102df610a0b565b6040516102ec9190612148565b60405180910390f35b61030f600480360381019061030a919061236b565b610a9d565b005b61032b600480360381019061032691906124e0565b610ab3565b005b610347600480360381019061034291906121a0565b610b15565b6040516103549190612148565b60405180910390f35b61037760048036038101906103729190612604565b610b7d565b005b610393600480360381019061038e91906126b7565b610cfc565b6040516103a0919061209d565b60405180910390f35b6103c360048036038101906103be91906122e8565b610d90565b005b6103df60048036038101906103da91906121a0565b610e13565b6040516103ef94939291906126f7565b60405180910390f35b60007f80ac58cd000000000000000000000000000000000000000000000000000000007bffffffffffffffffffffffffffffffffffffffffffffffffffffffff1916827bffffffffffffffffffffffffffffffffffffffffffffffffffffffff191614806104c357507f5b5e139f000000000000000000000000000000000000000000000000000000007bffffffffffffffffffffffffffffffffffffffffffffffffffffffff1916827bffffffffffffffffffffffffffffffffffffffffffffffffffffffff1916145b806104d357506104d282611077565b5b9050919050565b6060600080546104e990612779565b80601f016020809104026020016040519081016040528092919081815260200182805461051590612779565b80156105625780601f1061053757610100808354040283529160200191610562565b820191906000526020600020905b81548152906001019060200180831161054557829003601f168201915b5050505050905090565b6000610577826110e1565b6004600083815260200190815260200160002060009054906101000a900473ffffffffffffffffffffffffffffffffffffffff169050919050565b60006105bd826107b0565b90508073ffffffffffffffffffffffffffffffffffffffff168373ffffffffffffffffffffffffffffffffffffffff160361062d576040517f08c379a00000000000000000000000000000000000000000000000000000000081526004016106249061281c565b60405180910390fd5b8073ffffffffffffffffffffffffffffffffffffffff1661064c61112c565b73ffffffffffffffffffffffffffffffffffffffff16148061067b575061067a8161067561112c565b610cfc565b5b6106ba576040517f08c379a00000000000000000000000000000000000000000000000000000000081526004016106b1906128ae565b60405180910390fd5b6106c48383611134565b505050565b6007600082815260200190815260200160002060009054906101000a900460ff161561072a576040517f08c379a000000000000000000000000000000000000000000000000000000000815260040161072190612940565b60405180910390fd5b6107358383836111ed565b60016007600083815260200190815260200160002060006101000a81548160ff021916908315150217905550505050565b60006007600083815260200190815260200160002060009054906101000a900460ff169050919050565b6107ab83838360405180602001604052806000815250610ab3565b505050565b6000806107bc8361124d565b9050600073ffffffffffffffffffffffffffffffffffffffff168173ffffffffffffffffffffffffffffffffffffffff160361082d576040517f08c379a0000000000000000000000000000000000000000000000000000000008152600401610824906129ac565b60405180910390fd5b80915050919050565b60008073ffffffffffffffffffffffffffffffffffffffff168273ffffffffffffffffffffffffffffffffffffffff16036108a6576040517f08c379a000000000000000000000000000000000000000000000000000000000815260040161089d90612a3e565b60405180910390fd5b600360008373ffffffffffffffffffffffffffffffffffffffff1673ffffffffffffffffffffffffffffffffffffffff168152602001908152602001600020549050919050565b6108f561128a565b6108ff6000611308565b565b61090961128a565b610912816113ce565b610951576040517f08c379a000000000000000000000000000000000000000000000000000000000815260040161094890612aaa565b60405180910390fd5b6007600082815260200190815260200160002060009054906101000a900460ff16156109b2576040517f08c379a00000000000000000000000000000000000000000000000000000000081526004016109a990612b16565b60405180910390fd5b60016007600083815260200190815260200160002060006101000a81548160ff02191690831515021790555050565b6000600660009054906101000a900473ffffffffffffffffffffffffffffffffffffffff16905090565b606060018054610a1a90612779565b80601f0160208091040260200160405190810160405280929190818152602001828054610a4690612779565b8015610a935780601f10610a6857610100808354040283529160200191610a93565b820191906000526020600020905b815481529060010190602001808311610a7657829003601f168201915b5050505050905090565b610aaf610aa861112c565b838361140f565b5050565b610ac4610abe61112c565b8361157b565b610b03576040517f08c379a0000000000000000000000000000000000000000000000000000000008152600401610afa90612ba8565b60405180910390fd5b610b0f84848484611610565b50505050565b6060610b20826110e1565b6000610b2a61166c565b90506000815111610b4a5760405180602001604052806000815250610b75565b80610b5484611683565b604051602001610b65929190612c04565b6040516020818303038152906040525b915050919050565b610b8561128a565b610b8e836113ce565b15610bce576040517f08c379a0000000000000000000000000000000000000000000000000000000008152600401610bc590612c74565b60405180910390fd5b610bd88584611751565b60405180608001604052808381526020018281526020018673ffffffffffffffffffffffffffffffffffffffff1681526020018573ffffffffffffffffffffffffffffffffffffffff16815250600860008581526020019081526020016000206000820151816000019081610c4d9190612e40565b506020820151816001019081610c639190612e40565b5060408201518160020160006101000a81548173ffffffffffffffffffffffffffffffffffffffff021916908373ffffffffffffffffffffffffffffffffffffffff16021790555060608201518160030160006101000a81548173ffffffffffffffffffffffffffffffffffffffff021916908373ffffffffffffffffffffffffffffffffffffffff1602179055509050505050505050565b6000600560008473ffffffffffffffffffffffffffffffffffffffff1673ffffffffffffffffffffffffffffffffffffffff16815260200190815260200160002060008373ffffffffffffffffffffffffffffffffffffffff1673ffffffffffffffffffffffffffffffffffffffff16815260200190815260200160002060009054906101000a900460ff16905092915050565b610d9861128a565b600073ffffffffffffffffffffffffffffffffffffffff168173ffffffffffffffffffffffffffffffffffffffff1603610e07576040517f08c379a0000000000000000000000000000000000000000000000000000000008152600401610dfe90612f84565b60405180910390fd5b610e1081611308565b50565b606080600080610e22856113ce565b610e61576040517f08c379a0000000000000000000000000000000000000000000000000000000008152600401610e5890612aaa565b60405180910390fd5b600060086000878152602001908152602001600020604051806080016040529081600082018054610e9190612779565b80601f0160208091040260200160405190810160405280929190818152602001828054610ebd90612779565b8015610f0a5780601f10610edf57610100808354040283529160200191610f0a565b820191906000526020600020905b815481529060010190602001808311610eed57829003601f168201915b50505050508152602001600182018054610f2390612779565b80601f0160208091040260200160405190810160405280929190818152602001828054610f4f90612779565b8015610f9c5780601f10610f7157610100808354040283529160200191610f9c565b820191906000526020600020905b815481529060010190602001808311610f7f57829003601f168201915b505050505081526020016002820160009054906101000a900473ffffffffffffffffffffffffffffffffffffffff1673ffffffffffffffffffffffffffffffffffffffff1673ffffffffffffffffffffffffffffffffffffffff1681526020016003820160009054906101000a900473ffffffffffffffffffffffffffffffffffffffff1673ffffffffffffffffffffffffffffffffffffffff1673ffffffffffffffffffffffffffffffffffffffff1681525050905080600001518160200151826040015183606001519450945094509450509193509193565b60007f01ffc9a7000000000000000000000000000000000000000000000000000000007bffffffffffffffffffffffffffffffffffffffffffffffffffffffff1916827bffffffffffffffffffffffffffffffffffffffffffffffffffffffff1916149050919050565b6110ea816113ce565b611129576040517f08c379a0000000000000000000000000000000000000000000000000000000008152600401611120906129ac565b60405180910390fd5b50565b600033905090565b816004600083815260200190815260200160002060006101000a81548173ffffffffffffffffffffffffffffffffffffffff021916908373ffffffffffffffffffffffffffffffffffffffff160217905550808273ffffffffffffffffffffffffffffffffffffffff166111a7836107b0565b73ffffffffffffffffffffffffffffffffffffffff167f8c5be1e5ebec7d5bd14f71427d1e84f3dd0314c0f7b2291e5b200ac8c7c3b92560405160405180910390a45050565b6111fe6111f861112c565b8261157b565b61123d576040517f08c379a000000000000000000000000000000000000000000000000000000000815260040161123490612ba8565b60405180910390fd5b61124883838361176f565b505050565b60006002600083815260200190815260200160002060009054906101000a900473ffffffffffffffffffffffffffffffffffffffff169050919050565b61129261112c565b73ffffffffffffffffffffffffffffffffffffffff166112b06109e1565b73ffffffffffffffffffffffffffffffffffffffff1614611306576040517f08c379a00000000000000000000000000000000000000000000000000000000081526004016112fd90612ff0565b60405180910390fd5b565b6000600660009054906101000a900473ffffffffffffffffffffffffffffffffffffffff16905081600660006101000a81548173ffffffffffffffffffffffffffffffffffffffff021916908373ffffffffffffffffffffffffffffffffffffffff1602179055508173ffffffffffffffffffffffffffffffffffffffff168173ffffffffffffffffffffffffffffffffffffffff167f8be0079c531659141344cd1fd0a4f28419497f9722a3daafe3b4186f6b6457e060405160405180910390a35050565b60008073ffffffffffffffffffffffffffffffffffffffff166113f08361124d565b73ffffffffffffffffffffffffffffffffffffffff1614159050919050565b8173ffffffffffffffffffffffffffffffffffffffff168373ffffffffffffffffffffffffffffffffffffffff160361147d576040517f08c379a00000000000000000000000000000000000000000000000000000000081526004016114749061305c565b60405180910390fd5b80600560008573ffffffffffffffffffffffffffffffffffffffff1673ffffffffffffffffffffffffffffffffffffffff16815260200190815260200160002060008473ffffffffffffffffffffffffffffffffffffffff1673ffffffffffffffffffffffffffffffffffffffff16815260200190815260200160002060006101000a81548160ff0219169083151502179055508173ffffffffffffffffffffffffffffffffffffffff168373ffffffffffffffffffffffffffffffffffffffff167f17307eab39ab6107e8899845ad3d59bd9653f200f220920489ca2b5937696c318360405161156e919061209d565b60405180910390a3505050565b600080611587836107b0565b90508073ffffffffffffffffffffffffffffffffffffffff168473ffffffffffffffffffffffffffffffffffffffff1614806115c957506115c88185610cfc565b5b8061160757508373ffffffffffffffffffffffffffffffffffffffff166115ef8461056c565b73ffffffffffffffffffffffffffffffffffffffff16145b91505092915050565b61161b84848461176f565b61162784848484611a68565b611666576040517f08c379a000000000000000000000000000000000000000000000000000000000815260040161165d906130ee565b60405180910390fd5b50505050565b606060405180602001604052806000815250905090565b60606000600161169284611bef565b01905060008167ffffffffffffffff8111156116b1576116b06123b5565b5b6040519080825280601f01601f1916602001820160405280156116e35781602001600182028036833780820191505090505b509050600082602001820190505b600115611746578080600190039150507f3031323334353637383961626364656600000000000000000000000000000000600a86061a8153600a858161173a5761173961310e565b5b049450600085036116f1575b819350505050919050565b61176b828260405180602001604052806000815250611d42565b5050565b8273ffffffffffffffffffffffffffffffffffffffff1661178f826107b0565b73ffffffffffffffffffffffffffffffffffffffff16146117e5576040517f08c379a00000000000000000000000000000000000000000000000000000000081526004016117dc906131af565b60405180910390fd5b600073ffffffffffffffffffffffffffffffffffffffff168273ffffffffffffffffffffffffffffffffffffffff1603611854576040517f08c379a000000000000000000000000000000000000000000000000000000000815260040161184b90613241565b60405180910390fd5b6118618383836001611d9d565b8273ffffffffffffffffffffffffffffffffffffffff16611881826107b0565b73ffffffffffffffffffffffffffffffffffffffff16146118d7576040517f08c379a00000000000000000000000000000000000000000000000000000000081526004016118ce906131af565b60405180910390fd5b6004600082815260200190815260200160002060006101000a81549073ffffffffffffffffffffffffffffffffffffffff02191690556001600360008573ffffffffffffffffffffffffffffffffffffffff1673ffffffffffffffffffffffffffffffffffffffff168152602001908152602001600020600082825403925050819055506001600360008473ffffffffffffffffffffffffffffffffffffffff1673ffffffffffffffffffffffffffffffffffffffff16815260200190815260200160002060008282540192505081905550816002600083815260200190815260200160002060006101000a81548173ffffffffffffffffffffffffffffffffffffffff021916908373ffffffffffffffffffffffffffffffffffffffff160217905550808273ffffffffffffffffffffffffffffffffffffffff168473ffffffffffffffffffffffffffffffffffffffff167fddf252ad1be2c89b69c2b068fc378daa952ba7f163c4a11628f55a4df523b3ef60405160405180910390a4611a638383836001611da3565b505050565b6000611a898473ffffffffffffffffffffffffffffffffffffffff16611da9565b15611be2578373ffffffffffffffffffffffffffffffffffffffff1663150b7a02611ab261112c565b8786866040518563ffffffff1660e01b8152600401611ad494939291906132b6565b6020604051808303816000875af1925050508015611b1057506040513d601f19601f82011682018060405250810190611b0d9190613317565b60015b611b92573d8060008114611b40576040519150601f19603f3d011682016040523d82523d6000602084013e611b45565b606091505b506000815103611b8a576040517f08c379a0000000000000000000000000000000000000000000000000000000008152600401611b81906130ee565b60405180910390fd5b805181602001fd5b63150b7a0260e01b7bffffffffffffffffffffffffffffffffffffffffffffffffffffffff1916817bffffffffffffffffffffffffffffffffffffffffffffffffffffffff191614915050611be7565b600190505b949350505050565b600080600090507a184f03e93ff9f4daa797ed6e38ed64bf6a1f0100000000000000008310611c4d577a184f03e93ff9f4daa797ed6e38ed64bf6a1f0100000000000000008381611c4357611c4261310e565b5b0492506040810190505b6d04ee2d6d415b85acef81000000008310611c8a576d04ee2d6d415b85acef81000000008381611c8057611c7f61310e565b5b0492506020810190505b662386f26fc100008310611cb957662386f26fc100008381611caf57611cae61310e565b5b0492506010810190505b6305f5e1008310611ce2576305f5e1008381611cd857611cd761310e565b5b0492506008810190505b6127108310611d07576127108381611cfd57611cfc61310e565b5b0492506004810190505b60648310611d2a5760648381611d2057611d1f61310e565b5b0492506002810190505b600a8310611d39576001810190505b80915050919050565b611d4c8383611dcc565b611d596000848484611a68565b611d98576040517f08c379a0000000000000000000000000000000000000000000000000000000008152600401611d8f906130ee565b60405180910390fd5b505050565b50505050565b50505050565b6000808273ffffffffffffffffffffffffffffffffffffffff163b119050919050565b600073ffffffffffffffffffffffffffffffffffffffff168273ffffffffffffffffffffffffffffffffffffffff1603611e3b576040517f08c379a0000000000000000000000000000000000000000000000000000000008152600401611e3290613390565b60405180910390fd5b611e44816113ce565b15611e84576040517f08c379a0000000000000000000000000000000000000000000000000000000008152600401611e7b906133fc565b60405180910390fd5b611e92600083836001611d9d565b611e9b816113ce565b15611edb576040517f08c379a0000000000000000000000000000000000000000000000000000000008152600401611ed2906133fc565b60405180910390fd5b6001600360008473ffffffffffffffffffffffffffffffffffffffff1673ffffffffffffffffffffffffffffffffffffffff16815260200190815260200160002060008282540192505081905550816002600083815260200190815260200160002060006101000a81548173ffffffffffffffffffffffffffffffffffffffff021916908373ffffffffffffffffffffffffffffffffffffffff160217905550808273ffffffffffffffffffffffffffffffffffffffff16600073ffffffffffffffffffffffffffffffffffffffff167fddf252ad1be2c89b69c2b068fc378daa952ba7f163c4a11628f55a4df523b3ef60405160405180910390a4611fe5600083836001611da3565b5050565b6000604051905090565b600080fd5b600080fd5b60007fffffffff0000000000000000000000000000000000000000000000000000000082169050919050565b61203281611ffd565b811461203d57600080fd5b50565b60008135905061204f81612029565b92915050565b60006020828403121561206b5761206a611ff3565b5b600061207984828501612040565b91505092915050565b60008115159050919050565b61209781612082565b82525050565b60006020820190506120b2600083018461208e565b92915050565b600081519050919050565b600082825260208201905092915050565b60005b838110156120f25780820151818401526020810190506120d7565b60008484015250505050565b6000601f19601f8301169050919050565b600061211a826120b8565b61212481856120c3565b93506121348185602086016120d4565b61213d816120fe565b840191505092915050565b60006020820190508181036000830152612162818461210f565b905092915050565b6000819050919050565b61217d8161216a565b811461218857600080fd5b50565b60008135905061219a81612174565b92915050565b6000602082840312156121b6576121b5611ff3565b5b60006121c48482850161218b565b91505092915050565b600073ffffffffffffffffffffffffffffffffffffffff82169050919050565b60006121f8826121cd565b9050919050565b612208816121ed565b82525050565b600060208201905061222360008301846121ff565b92915050565b612232816121ed565b811461223d57600080fd5b50565b60008135905061224f81612229565b92915050565b6000806040838503121561226c5761226b611ff3565b5b600061227a85828601612240565b925050602061228b8582860161218b565b9150509250929050565b6000806000606084860312156122ae576122ad611ff3565b5b60006122bc86828701612240565b93505060206122cd86828701612240565b92505060406122de8682870161218b565b9150509250925092565b6000602082840312156122fe576122fd611ff3565b5b600061230c84828501612240565b91505092915050565b61231e8161216a565b82525050565b60006020820190506123396000830184612315565b92915050565b61234881612082565b811461235357600080fd5b50565b6000813590506123658161233f565b92915050565b6000806040838503121561238257612381611ff3565b5b600061239085828601612240565b92505060206123a185828601612356565b9150509250929050565b600080fd5b600080fd5b7f4e487b7100000000000000000000000000000000000000000000000000000000600052604160045260246000fd5b6123ed826120fe565b810181811067ffffffffffffffff8211171561240c5761240b6123b5565b5b80604052505050565b600061241f611fe9565b905061242b82826123e4565b919050565b600067ffffffffffffffff82111561244b5761244a6123b5565b5b612454826120fe565b9050602081019050919050565b82818337600083830152505050565b600061248361247e84612430565b612415565b90508281526020810184848401111561249f5761249e6123b0565b5b6124aa848285612461565b509392505050565b600082601f8301126124c7576124c66123ab565b5b81356124d7848260208601612470565b91505092915050565b600080600080608085870312156124fa576124f9611ff3565b5b600061250887828801612240565b945050602061251987828801612240565b935050604061252a8782880161218b565b925050606085013567ffffffffffffffff81111561254b5761254a611ff8565b5b612557878288016124b2565b91505092959194509250565b600067ffffffffffffffff82111561257e5761257d6123b5565b5b612587826120fe565b9050602081019050919050565b60006125a76125a284612563565b612415565b9050828152602081018484840111156125c3576125c26123b0565b5b6125ce848285612461565b509392505050565b600082601f8301126125eb576125ea6123ab565b5b81356125fb848260208601612594565b91505092915050565b600080600080600060a086880312156126205761261f611ff3565b5b600061262e88828901612240565b955050602061263f88828901612240565b94505060406126508882890161218b565b935050606086013567ffffffffffffffff81111561267157612670611ff8565b5b61267d888289016125d6565b925050608086013567ffffffffffffffff81111561269e5761269d611ff8565b5b6126aa888289016125d6565b9150509295509295909350565b600080604083850312156126ce576126cd611ff3565b5b60006126dc85828601612240565b92505060206126ed85828601612240565b9150509250929050565b60006080820190508181036000830152612711818761210f565b90508181036020830152612725818661210f565b905061273460408301856121ff565b61274160608301846121ff565b95945050505050565b7f4e487b7100000000000000000000000000000000000000000000000000000000600052602260045260246000fd5b6000600282049050600182168061279157607f821691505b6020821081036127a4576127a361274a565b5b50919050565b7f4552433732313a20617070726f76616c20746f2063757272656e74206f776e6560008201527f7200000000000000000000000000000000000000000000000000000000000000602082015250565b60006128066021836120c3565b9150612811826127aa565b604082019050919050565b60006020820190508181036000830152612835816127f9565b9050919050565b7f4552433732313a20617070726f76652063616c6c6572206973206e6f7420746f60008201527f6b656e206f776e6572206f7220617070726f76656420666f7220616c6c000000602082015250565b6000612898603d836120c3565b91506128a38261283c565b604082019050919050565b600060208201905081810360008301526128c78161288b565b9050919050565b7f546f6b656e206973206c6f636b656420616e642063616e6e6f7420626520747260008201527f616e736665727265640000000000000000000000000000000000000000000000602082015250565b600061292a6029836120c3565b9150612935826128ce565b604082019050919050565b600060208201905081810360008301526129598161291d565b9050919050565b7f4552433732313a20696e76616c696420746f6b656e2049440000000000000000600082015250565b60006129966018836120c3565b91506129a182612960565b602082019050919050565b600060208201905081810360008301526129c581612989565b9050919050565b7f4552433732313a2061646472657373207a65726f206973206e6f74206120766160008201527f6c6964206f776e65720000000000000000000000000000000000000000000000602082015250565b6000612a286029836120c3565b9150612a33826129cc565b604082019050919050565b60006020820190508181036000830152612a5781612a1b565b9050919050565b7f546f6b656e20494420646f6573206e6f74206578697374000000000000000000600082015250565b6000612a946017836120c3565b9150612a9f82612a5e565b602082019050919050565b60006020820190508181036000830152612ac381612a87565b9050919050565b7f546f6b656e20697320616c7265616479206c6f636b6564000000000000000000600082015250565b6000612b006017836120c3565b9150612b0b82612aca565b602082019050919050565b60006020820190508181036000830152612b2f81612af3565b9050919050565b7f4552433732313a2063616c6c6572206973206e6f7420746f6b656e206f776e6560008201527f72206f7220617070726f76656400000000000000000000000000000000000000602082015250565b6000612b92602d836120c3565b9150612b9d82612b36565b604082019050919050565b60006020820190508181036000830152612bc181612b85565b9050919050565b600081905092915050565b6000612bde826120b8565b612be88185612bc8565b9350612bf88185602086016120d4565b80840191505092915050565b6000612c108285612bd3565b9150612c1c8284612bd3565b91508190509392505050565b7f546f6b656e20494420616c726561647920657869737473000000000000000000600082015250565b6000612c5e6017836120c3565b9150612c6982612c28565b602082019050919050565b60006020820190508181036000830152612c8d81612c51565b9050919050565b60008190508160005260206000209050919050565b60006020601f8301049050919050565b600082821b905092915050565b600060088302612cf67fffffffffffffffffffffffffffffffffffffffffffffffffffffffffffffffff82612cb9565b612d008683612cb9565b95508019841693508086168417925050509392505050565b6000819050919050565b6000612d3d612d38612d338461216a565b612d18565b61216a565b9050919050565b6000819050919050565b612d5783612d22565b612d6b612d6382612d44565b848454612cc6565b825550505050565b600090565b612d80612d73565b612d8b818484612d4e565b505050565b5b81811015612daf57612da4600082612d78565b600181019050612d91565b5050565b601f821115612df457612dc581612c94565b612dce84612ca9565b81016020851015612ddd578190505b612df1612de985612ca9565b830182612d90565b50505b505050565b600082821c905092915050565b6000612e1760001984600802612df9565b1980831691505092915050565b6000612e308383612e06565b9150826002028217905092915050565b612e49826120b8565b67ffffffffffffffff811115612e6257612e616123b5565b5b612e6c8254612779565b612e77828285612db3565b600060209050601f831160018114612eaa5760008415612e98578287015190505b612ea28582612e24565b865550612f0a565b601f198416612eb886612c94565b60005b82811015612ee057848901518255600182019150602085019450602081019050612ebb565b86831015612efd5784890151612ef9601f891682612e06565b8355505b6001600288020188555050505b505050505050565b7f4f776e61626c653a206e6577206f776e657220697320746865207a65726f206160008201527f6464726573730000000000000000000000000000000000000000000000000000602082015250565b6000612f6e6026836120c3565b9150612f7982612f12565b604082019050919050565b60006020820190508181036000830152612f9d81612f61565b9050919050565b7f4f776e61626c653a2063616c6c6572206973206e6f7420746865206f776e6572600082015250565b6000612fda6020836120c3565b9150612fe582612fa4565b602082019050919050565b6000602082019050818103600083015261300981612fcd565b9050919050565b7f4552433732313a20617070726f766520746f2063616c6c657200000000000000600082015250565b60006130466019836120c3565b915061305182613010565b602082019050919050565b6000602082019050818103600083015261307581613039565b9050919050565b7f4552433732313a207472616e7366657220746f206e6f6e20455243373231526560008201527f63656976657220696d706c656d656e7465720000000000000000000000000000602082015250565b60006130d86032836120c3565b91506130e38261307c565b604082019050919050565b60006020820190508181036000830152613107816130cb565b9050919050565b7f4e487b7100000000000000000000000000000000000000000000000000000000600052601260045260246000fd5b7f4552433732313a207472616e736665722066726f6d20696e636f72726563742060008201527f6f776e6572000000000000000000000000000000000000000000000000000000602082015250565b60006131996025836120c3565b91506131a48261313d565b604082019050919050565b600060208201905081810360008301526131c88161318c565b9050919050565b7f4552433732313a207472616e7366657220746f20746865207a65726f2061646460008201527f7265737300000000000000000000000000000000000000000000000000000000602082015250565b600061322b6024836120c3565b9150613236826131cf565b604082019050919050565b6000602082019050818103600083015261325a8161321e565b9050919050565b600081519050919050565b600082825260208201905092915050565b600061328882613261565b613292818561326c565b93506132a28185602086016120d4565b6132ab816120fe565b840191505092915050565b60006080820190506132cb60008301876121ff565b6132d860208301866121ff565b6132e56040830185612315565b81810360608301526132f7818461327d565b905095945050505050565b60008151905061331181612029565b92915050565b60006020828403121561332d5761332c611ff3565b5b600061333b84828501613302565b91505092915050565b7f4552433732313a206d696e7420746f20746865207a65726f2061646472657373600082015250565b600061337a6020836120c3565b915061338582613344565b602082019050919050565b600060208201905081810360008301526133a98161336d565b9050919050565b7f4552433732313a20746f6b656e20616c7265616479206d696e74656400000000600082015250565b60006133e6601c836120c3565b91506133f1826133b0565b602082019050919050565b60006020820190508181036000830152613415816133d9565b905091905056fea26469706673582212200a2f0fc775fd2e861cfaaf666f69757e7e0c769b6171071a4f5fa4188347502364736f6c63430008180033",
  "linkReferences": {},
  "deployedLinkReferences": {}
}